:04C000000A024300ED
:0CC0040000000000FFFF0000FFFF000034
:10C01000314000043C4082020D433E401200B01209
:10C0200048C33C4000023D4094C30D9C04243E4064
:10C030008200B0120CC3B01278C30C43B0124AC1D4
:10C04000B012A4C2344004C0354004C0264330407E
:10C0500070C0344004C0354004C02643304070C036
:10C06000344004C0354004C03640FEFF304070C04C
:10C070000594052427440456A7121040F4FF3041CC
:10C08000304130413C4094C33C8093C36D430D9C90
:10C09000072C3D4000000D9303243C4094C38D12B7
:10C0A00030410A123A4094C33A8094C30A110C4AB0
:10C0B000B012F0C10C5A0D4C0D110D9307243E40E7
:10C0C00000000E9303243C4094C38E123A41304149
:10C0D0000A120912C293820217203A400EC03A8017
:10C0E0000CC00A113A5339400CC01C4284020C9A0D
:10C0F0000D28B01284C03D4000000D9303243C4045
:10C1000004C08D12D24382023040EAC11C53824CDB
:10C1100084020C5C0C592C4C8C123040EAC03E401E
:10C1200000000E9305243D4086023C4004C08E1260
:10C130003C4000028C93000005243D4000000D931C
:10C1400001248D12B012A2C03041B240805A2001A9
:10C15000D2D32200E2D32A005C42F9107C93062459
:10C16000D242F9105700D242F8105600B2401000E7
:10C170006201B240803E7201B24010006401B240E0
:10C18000803E7401B2402002600132D018004C435E
:10C1900030410C12B250803E7201925306021C4292
:10C1A00006023C90F401042082430602D2E32100FF
:10C1B0003C4100130C12A2B32E010A24B250803E5F
:10C1C0007401925304021C4204023C90FA000224BF
:10C1D0003C41001382430402E2E329003C41001386
:10C1E0003441354136413741384139413A41304196
:10C1F00012C30C1012C30C1012C30C1012C30C107B
:10C2000012C30C1012C30C1012C30C1012C30C106A
:10C2100012C30C1012C30C1012C30C1012C30C105A
:10C2200012C30C1012C30C1012C30C1030413D533A
:10C2300012C30C100D93FB23304112C30D100C10D0
:10C2400012C30D100C1012C30D100C1012C30D10E0
:10C250000C1012C30D100C1012C30D100C1012C3D1
:10C260000D100C1012C30D100C1012C30D100C1079
:10C2700012C30D100C1012C30D100C1012C30D10B0
:10C280000C1012C30D100C1012C30D100C1012C3A1
:10C290000D100C1030413E5312C30D100C100E93B4
:10C2A000FA2330413040A4C21C4330413C402A00B4
:10C2B0003041B01206C3BC40580000003C4330413E
:10C2C000B01206C3BC40580000003C433041B012DD
:10C2D00006C3BC40580000003C433041B01206C3C6
:10C2E000BC40580000003C433041B01206C3BC4083
:10C2F000580000003C433041B01206C3BC40580017
:10C3000000003C4330411C42080230410B4C0B5EA4
:10C310000D9C09280E4C0B9E1024EE4D00001E5360
:10C320001D53304016C30F4D0F5E0C9FF32F0D4F62
:10C330000E8F0F4D0F5E0F93012030413B533D5345
:10C34000EB4D0000304032C30F4C0E5C0F9E0120BD
:10C350003041CF4D00001F5330404CC330410A12D2
:10C360003A4008C02C4A3C9302203A4130418C129A
:10C370003A50FEFF304064C3B0121EC1B0125EC31B
:10C38000B01252C0B01244C03041B01260C0B012FE
:04C39000D0C03041A8
:10C3940000000000640000000A0200000000000029
:10C3A4000000000000000000000002C000000000C7
:10C3B4000000000000000000000000000000000079
:10C3C4000000000000000000000000000000000069
:10C3D4000000000000000000000000000000000059
:10C3E4000000000000000000000000000000000049
:10C3F4000000000000000000000000000000000039
:10C404000000000000000000000000000000000028
:02C41400000026
:02FFF000B4C19A
:02FFF20092C1BA
:02FFFE0010C031
:040000030000C01029
:00000001FF
